:100000000C942A000C9447000C9447000C94470071
:100010000C9447000C9447000C9447000C94470044
:100020000C9447000C9447000C9447000C94B20BBE
:100030000C9447000C9447000C9447000C94470024
:100040000C9447000C9447000C9447000C94470014
:100050000C94470011241FBECFE5D4E0DEBFCDBF16
:1000600011E0A0E6B0E0E0E3FFE102C005900D92F0
:10007000A03AB107D9F711E0A0EAB1E001C01D92A2
:10008000A03BB107E1F70E94E50B0C94960F0C948E
:100090000000EF92FF920F931F937B018C0120E0F1
:1000A00030E040E05FE40E94CB0288238CF0C8017E
:1000B000B70120E030E040E05FE40E94C1010E940F
:1000C000FB029B01AC01205030404040504806C02C
:1000D000C801B7010E94FB029B01AC01B901CA0132
:1000E0001F910F91FF90EF900895A0E0B0E0EBE733
:1000F000F0E00C945F0FDC012B01FA019C9192302F
:1001000008F439C1EB018881823008F433C194309E
:1001100069F4843009F02FC111969C91119789815F
:10012000981709F428C1A4E9B0E025C1843009F486
:1001300021C18230A9F4923009F01DC19A01AD01AC
:1001400088E0EA010990AE01E90109929E0181501F
:10015000C1F7E201898111969C918923818308C1AD
:10016000923009F407C112962D903C901397EB0141
:100170008A819B811496AD90BD90CD90DC901797AD
:10018000EC80FD800E811F819101281B390BB90184
:1001900037FF04C066277727621B730B6032710537
:1001A0000CF061C0121613066CF537014801062EDB
:1001B00004C096948794779467940A94D2F721E0C8
:1001C00030E040E050E004C0220F331F441F551FB1
:1001D0006A95D2F721503040404050402E213F21B7
:1001E00040235123211531054105510521F021E01E
:1001F00030E040E050E079018A01E628F72808293C
:1002000019293CC0232BD1F1260E371E350146019A
:10021000062E04C096948794779467940A94D2F734
:1002200021E030E040E050E004C0220F331F441FC3
:10023000551F6A95D2F721503040404050402A2146
:100240003B214C215D21211531054105510521F04E
:1002500021E030E040E050E059016A01A628B728CB
:10026000C828D9280BC0821593052CF01C01AA249C
:10027000BB24650103C0EE24FF24870111969C91E5
:10028000D20111968C91981709F445C0992339F041
:10029000A80197012A193B094C095D0906C0A6016E
:1002A00095012E193F09400B510B57FD08C01182D3
:1002B0003382228224833583468357831DC081E0A5
:1002C00081833382228288279927DC01821B930B4A
:1002D000A40BB50B84839583A683B7830DC0220F2F
:1002E000331F441F551F24833583468357838281E0
:1002F000938101979383828324813581468157813D
:10030000DA01C9010197A109B1098F5F9F4FAF4F72
:10031000BF4328F30BC0918333822282EA0CFB1C7B
:100320000C1D1D1DE482F5820683178383E0808304
:10033000248135814681578157FF1AC0C901AA27F8
:1003400097FDA095BA2F81709070A070B0705695EF
:10035000479537952795822B932BA42BB52B848318
:100360009583A683B7838281938101969383828349
:10037000DF0101C0D201CD01CDB7DEB7E2E10C94BF
:100380007B0FA0E2B0E0E7ECF1E00C946B0F698327
:100390007A838B839C832D833E834F835887E9E048
:1003A000EE2EF12CEC0EFD1ECE010196B7010E943F
:1003B000EC048E010F5E1F4FCE010596B8010E941E
:1003C000EC048A8991E089278A8BC701B801AE01C4
:1003D000475E5F4F0E9475000E941704A096E6E0FA
:1003E0000C94870FA0E2B0E0E8EFF1E00C946B0F03
:1003F00069837A838B839C832D833E834F835887C5
:10040000F9E0EF2EF12CEC0EFD1ECE010196B701A6
:100410000E94EC048E010F5E1F4FCE010596B801BD
:100420000E94EC04C701B801AE01475E5F4F0E9415
:1004300075000E941704A096E6E00C94870FA8E1CF
:10044000B0E0E5E2F2E00C94670F69837A838B8376
:100450009C832D833E834F835887B9E0EB2EF12C8C
:10046000EC0EFD1ECE010196B7010E94EC048E0138
:100470000F5E1F4FCE010596B8010E94EC0429853E
:10048000223008F47EC03989323010F4B8017CC0C3
:100490008A859A8989278A87243011F0223031F49D
:1004A000231709F06EC064E970E06EC0343039F48F
:1004B0001D861E861F86188A1C861B8604C0323045
:1004C00021F484E08987B7015FC02B853C858B8947
:1004D0009C89281B390B3C872B87ED84FE840F8574
:1004E0001889AD88BE88CF88D88CEA14FB040C0527
:1004F0001D0540F4EE0CFF1C001F111F2150304061
:100500003C872B8720E030E040E050E080E090E046
:10051000A0E0B0E460E070E0EA14FB040C051D0507
:1005200040F0282B392B4A2B5B2BEA18FB080C09CF
:100530001D09B695A79597958795EE0CFF1C001F92
:10054000111F6F5F7F4F6F31710531F7DA01C901FC
:100550008F779070A070B07080349105A105B105BF
:1005600061F427FD0AC0E114F1040105110529F029
:10057000205C3F4F4F4F5F4F20782D873E874F873E
:10058000588BBE01675F7F4FCB010E9417046896AE
:10059000EAE00C94830FA8E1B0E0E1EDF2E00C9406
:1005A0006B0F69837A838B839C832D833E834F8378
:1005B000588789E0E82EF12CEC0EFD1ECE01019645
:1005C000B7010E94EC048E010F5E1F4FCE0105960D
:1005D000B8010E94EC048985823040F0898982301C
:1005E00028F0C701B8010E94640501C08FEF68962A
:1005F000E6E00C94870FACE0B0E0E1E0F3E00C94AF
:100600006F0F69837A838B839C83CE010196BE0131
:100610006B5F7F4F0E94EC048D81823061F18230EC
:1006200050F1843021F48E81882351F12EC02F8126
:10063000388537FD20C06E812F3131051CF06623CF
:10064000F9F023C08EE190E0821B930B29853A8557
:100650004B855C8504C056954795379527958A95B7
:10066000D2F76623B1F050954095309521953F4FD4
:100670004F4F5F4F0EC020E030E040E050E009C037
:100680002FEF3FEF4FEF5FE704C020E030E040E0A6
:1006900050E8B901CA012C96E2E00C948B0FA8E057
:1006A000B0E0E5E5F3E00C94670F7B018C01611588
:1006B00071058105910519F482E0898360C083E0AA
:1006C00089838EE1C82ED12CDC82CB82ED82FE8222
:1006D0000F831887C801B7010E94C803FC01319736
:1006E000F7FF3BC0222733272E1B3F0B5701680122
:1006F000022E04C0D694C794B794A7940A94D2F754
:1007000040E050E060E070E081E090E0A0E0B0E028
:1007100004C0880F991FAA1FBB1F2A95D2F7019703
:10072000A109B1098E219F21A023B1230097A10522
:10073000B10521F041E050E060E070E04A295B291A
:100740006C297D294D835E836F8378878EE190E0ED
:100750008E1B9F0B9C838B8312C0309781F00E2ED3
:1007600004C0EE0CFF1C001F111F0A94D2F7ED828B
:10077000FE820F831887CE1ADF0ADC82CB821A82B0
:10078000CE0101960E9417042896EAE00C94830F8C
:10079000EF92FF920F931F937B018C0180E0E8168C
:1007A00080E0F80681E0080780E0180788F48FEF02
:1007B000E816F1040105110531F028F088E090E019
:1007C000A0E0B0E017C080E090E0A0E0B0E012C090
:1007D00080E0E81680E0F80680E0080781E018076E
:1007E00028F088E190E0A0E0B0E004C080E190E073
:1007F000A0E0B0E020E230E040E050E0281B390B00
:100800004A0B5B0B04C016950795F794E7948A95FD
:10081000D2F7F701E456FF4F8081281B31094109C7
:100820005109C9011F910F91FF90EF900895DF9238
:10083000EF92FF920F931F93FC01E480F5800681F5
:100840001781D1808081823048F480E090E0A0E17F
:10085000B0E0E82AF92A0A2B1B2BA5C0843009F442
:100860009FC0823021F4EE24FF24870105C0E114EB
:10087000F1040105110519F4E0E0F0E096C0628191
:1008800073819FEF623879070CF05BC022E83FEF7D
:10089000261B370B2A3131052CF020E030E040E0F8
:1008A00050E02AC0B801A701022E04C076956795D2
:1008B000579547950A94D2F781E090E0A0E0B0E028
:1008C00004C0880F991FAA1FBB1F2A95D2F7019752
:1008D000A109B1098E219F21A023B1230097A10571
:1008E000B10521F081E090E0A0E0B0E09A01AB0119
:1008F000282B392B4A2B5B2BDA01C9018F7790709B
:10090000A070B07080349105A105B10539F427FFBE
:1009100009C0205C3F4F4F4F5F4F04C0215C3F4FE9
:100920004F4F5F4FE0E0F0E02030A0E03A07A0E05A
:100930004A07A0E45A0710F0E1E0F0E079018A01EB
:1009400027C06038710564F5FB01E158FF4FD801FD
:10095000C7018F779070A070B07080349105A105A9
:10096000B10539F4E7FE0DC080E490E0A0E0B0E00E
:1009700004C08FE390E0A0E0B0E0E80EF91E0A1F8B
:100980001B1F17FF05C016950795F794E79431963E
:1009900087E016950795F794E7948A95D1F705C0F7
:1009A000EE24FF248701EFEFF0E06E2F67956627B6
:1009B0006795902F9F77D794DD24D7948E2F8695B7
:1009C000492F462B582F5D29B701CA011F910F915E
:1009D000FF90EF90DF900895FC01DB014081518191
:1009E0002281622F6F7770E0221F2227221F9381BE
:1009F000892F880F822B282F30E0991F9927991F64
:100A000011969C93119721153105A9F541155105B2
:100A10006105710511F482E037C082E89FEF1396FB
:100A20009C938E9312979A01AB0167E0220F331FBC
:100A3000441F551F6A95D1F783E08C930DC0220F98
:100A4000331F441F551F12968D919C911397019748
:100A500013969C938E931297203080E0380780E0A5
:100A6000480780E4580758F314962D933D934D930F
:100A70005C93179708952F3F310579F4411551057F
:100A80006105710519F484E08C93089564FF03C037
:100A900081E08C9312C01C9210C02F5730401396E7
:100AA0003C932E93129783E08C9387E0440F551F5D
:100AB000661F771F8A95D1F7706414964D935D93E6
:100AC0006D937C93179708951F93DC01FB019C9114
:100AD000923008F447C08081823008F443C09430DB
:100AE00051F411961C91843099F58181682F70E042
:100AF000611B71093FC0843021F0923031F48230A3
:100B0000B9F18181882389F12DC011961C9111972B
:100B10008230F1F081811817D9F412962D913C9111
:100B20001397828193818217930794F028173907CE
:100B3000BCF014968D919D910D90BC91A02D2481B7
:100B4000358146815781281739074A075B0718F412
:100B5000112341F00AC082179307A407B50740F498
:100B6000112319F061E070E005C06FEF7FEF02C064
:100B700060E070E0CB011F910895DF93CF93CDB774
:100B8000DEB768E270E080E090E00E94C10A88E38E
:100B90000E9400068CE00E94000681E00E94000690
:100BA00062E070E080E090E00E94C10ACF91DF91A6
:100BB0000895DF93CF930F92CDB7DEB7898384E496
:100BC00060E041E00E94AE0884E461E040E00E9401
:100BD000AE0889810E94CB0684E462E041E00E9475
:100BE000AE0861E070E080E090E00E94C10A84E419
:100BF00062E040E00E94AE080F90CF91DF9108952F
:100C0000DF93CF930F92CDB7DEB7898384E460E0A2
:100C100040E00E94AE0884E461E040E00E94AE083B
:100C200089810E94CB0684E462E041E00E94AE0824
:100C300061E070E080E090E00E94C10A84E462E03C
:100C400040E00E94AE080F90CF91DF910895DF93AE
:100C5000CF9300D00F92CDB7DEB79B838A831982E2
:100C60000EC08981282F30E08A819B81FC01E20F30
:100C7000F31F80810E94D90589818F5F89838981D3
:100C8000282F30E08A819B81FC01E20FF31F8081D5
:100C9000882339F70F900F900F90CF91DF9108952F
:100CA000DF93CF9300D00F92CDB7DEB78A836B83EB
:100CB0008B81882319F48A81898306C08B818130D6
:100CC00019F48A81805C8983898180680E9400068A
:100CD0000F900F900F90CF91DF910895DF93CF93F6
:100CE000CDB7DEB784E462E041E00E94AE0861E087
:100CF00070E080E090E00E94C10A84E462E040E09D
:100D00000E94AE0861E070E080E090E00E94C10ABD
:100D1000CF91DF910895DF93CF9300D0CDB7DEB7A9
:100D20008A838A818170898382E464E049810E9498
:100D3000AE088A81882F90E0827090709595879593
:100D4000898382E465E049810E94AE088A81882F08
:100D500090E0847090709595879595958795898397
:100D600082E466E049810E94AE088A81882F90E083
:100D700088709070959587959595879595958795A9
:100D8000898382E467E049810E94AE080F900F904A
:100D9000CF91DF910895DF93CF9300D0CDB7DEB729
:100DA0008A838A818170898382E460E049810E941C
:100DB000AE088A81882F90E0827090709595879513
:100DC000898382E461E049810E94AE088A81882F8C
:100DD00090E0847090709595879595958795898317
:100DE00082E462E049810E94AE088A81882F90E007
:100DF0008870907095958795959587959595879529
:100E0000898382E463E049810E94AE088A81882F49
:100E100090E08071907095958795959587959595BB
:100E2000879595958795898382E464E049810E943E
:100E3000AE088A81882F90E0807290709595879592
:100E4000959587959595879595958795959587958A
:100E5000898382E465E049810E94AE088A81882FF7
:100E600090E080749070082E892F000C881F990BD9
:100E7000000C881F991F898382E466E049810E94E3
:100E8000AE088A81881F8827881F898382E467E0EB
:100E900049810E94AE080F900F90CF91DF91089585
:100EA0000F931F93DF93CF93CDB7DEB7CA56D040D1
:100EB0000FB6F894DEBF0FBECDBFFE01E959FF4F5C
:100EC00060837183828393831A828A81082F10E062
:100ED000FE01E959FF4F80819181A281B3812AE00F
:100EE00030E040E050E0BC01CD010E943D0FDC014C
:100EF000CB01282FCE010396FC01E00FF11F2083C8
:100F00008E0109591F4FFE01E959FF4F80819181E0
:100F1000A281B3812AE030E040E050E0BC01CD0185
:100F20000E943D0FDA01C901F80180839183A283F9
:100F3000B3838A818F5F8A83FE01E959FF4F8081E5
:100F40009181A281B3810097A105B10509F0BDCFC0
:100F50008A81815089838981282F30E0CE010396D0
:100F6000FC01E20FF31F8081805D0E94D905898119
:100F7000882321F0898181508983EDCFC659DF4FC5
:100F80000FB6F894DEBF0FBECDBFCF91DF911F919A
:100F90000F910895DF93CF9300D000D00F92CDB77B
:100FA000DEB789836A834B838981282F30E03D83B4
:100FB0002C838C819D818234910509F444C02C815D
:100FC0003D812334310534F48C819D818134910538
:100FD00071F0BCC02C813D812334310509F45FC020
:100FE0008C819D818434910509F485C0AFC08B81CB
:100FF0008823A9F4AAE3B0E0EAE3F0E08081482F77
:101000008A81282F30E081E090E0022E02C0880F14
:10101000991F0A94E2F7809584238C9397C0AAE3E2
:10102000B0E0EAE3F0E08081482F8A81282F30E0A9
:1010300081E090E0022E02C0880F991F0A94E2F727
:10104000842B8C9383C08B818823A9F4A7E3B0E021
:10105000E7E3F0E08081482F8A81282F30E081E0AB
:1010600090E0022E02C0880F991F0A94E2F7809543
:1010700084238C936BC0A7E3B0E0E7E3F0E08081CA
:10108000482F8A81282F30E081E090E0022E02C0B4
:10109000880F991F0A94E2F7842B8C9357C08B8199
:1010A0008823A9F4A4E3B0E0E4E3F0E08081482FD2
:1010B0008A81282F30E081E090E0022E02C0880F64
:1010C000991F0A94E2F7809584238C933FC0A4E390
:1010D000B0E0E4E3F0E08081482F8A81282F30E0FF
:1010E00081E090E0022E02C0880F991F0A94E2F777
:1010F000842B8C932BC08B818823A9F4A1E3B0E0CF
:10110000E1E3F0E08081482F8A81282F30E081E000
:1011100090E0022E02C0880F991F0A94E2F7809592
:1011200084238C9313C0A1E3B0E0E1E3F0E080817D
:10113000482F8A81282F30E081E090E0022E02C003
:10114000880F991F0A94E2F7842B8C930F900F90CD
:101150000F900F900F90CF91DF910895DF93CF9371
:1011600000D000D00F92CDB7DEB789836A834B835E
:101170008981282F30E03D832C838C819D818234AE
:10118000910509F444C02C813D812334310534F4A8
:101190008C819D818134910571F0BCC02C813D8191
:1011A0002334310509F45FC08C819D81843491051D
:1011B00009F485C0AFC08B818823A9F4ABE3B0E00C
:1011C000EBE3F0E08081482F8A81282F30E081E036
:1011D00090E0022E02C0880F991F0A94E2F78095D2
:1011E00084238C9397C0ABE3B0E0EBE3F0E0808125
:1011F000482F8A81282F30E081E090E0022E02C043
:10120000880F991F0A94E2F7842B8C9383C08B81FB
:101210008823A9F4A8E3B0E0E8E3F0E08081482F58
:101220008A81282F30E081E090E0022E02C0880FF2
:10123000991F0A94E2F7809584238C936BC0A8E3EE
:10124000B0E0E8E3F0E08081482F8A81282F30E089
:1012500081E090E0022E02C0880F991F0A94E2F705
:10126000842B8C9357C08B818823A9F4A5E3B0E02D
:10127000E5E3F0E08081482F8A81282F30E081E08B
:1012800090E0022E02C0880F991F0A94E2F7809521
:1012900084238C933FC0A5E3B0E0E5E3F0E08081D8
:1012A000482F8A81282F30E081E090E0022E02C092
:1012B000880F991F0A94E2F7842B8C932BC08B81A3
:1012C0008823A9F4A2E3B0E0E2E3F0E08081482FB4
:1012D0008A81282F30E081E090E0022E02C0880F42
:1012E000991F0A94E2F7809584238C9313C0A2E39C
:1012F000B0E0E2E3F0E08081482F8A81282F30E0DF
:1013000081E090E0022E02C0880F991F0A94E2F754
:10131000842B8C930F900F900F900F900F90CF9184
:10132000DF910895DF93CF9300D000D0CDB7DEB723
:1013300089836A838981282F30E03C832B838B81CA
:101340009C8182349105D9F02B813C812334310575
:1013500034F48B819C818134910561F01EC02B8116
:101360003C812334310581F08B819C81843491054B
:1013700081F013C0EAE3F0E08A8180830EC0E7E3E6
:10138000F0E08A81808309C0E4E3F0E08A81808311
:1013900004C0E1E3F0E08A8180830F900F900F900A
:1013A0000F90CF91DF910895DF93CF9300D000D0BD
:1013B000CDB7DEB789836A838981282F30E03C83EB
:1013C0002B838B819C8182349105D9F02B813C81C8
:1013D0002334310534F48B819C818134910561F093
:1013E0001EC02B813C812334310581F08B819C818F
:1013F0008434910581F013C0EBE3F0E08A818083AF
:101400000EC0E8E3F0E08A81808309C0E5E3F0E004
:101410008A81808304C0E2E3F0E08A8180830F90B8
:101420000F900F900F90CF91DF910895DF93CF939E
:1014300000D000D00F92CDB7DEB78A836B838A814C
:10144000282F30E03D832C834C815D81423451054F
:10145000B1F18C819D818334910534F42C813D81DF
:101460002134310571F084C04C815D8143345105D4
:1014700009F443C08C819D818434910509F45BC0DB
:1014800077C0E9E3F0E08081482F50E08B81282F7E
:1014900030E081E090E002C0880F991F2A95E2F7C2
:1014A0009A01282339238B81882F90E0A90102C05B
:1014B000559547958A95E2F7CA01898359C0E6E3B5
:1014C000F0E08081482F50E08B81282F30E081E0D0
:1014D00090E002C0880F991F2A95E2F79A0128230D
:1014E00039238B81882F90E0A90102C0559547953B
:1014F0008A95E2F7CA0189833BC0E3E3F0E080818B
:10150000482F50E08B81282F30E081E090E002C02E
:10151000880F991F2A95E2F79A01282339238B8196
:10152000882F90E0A90102C0559547958A95E2F76A
:10153000CA0189831DC0E0E3F0E08081482F50E0BC
:101540008B81282F30E081E090E002C0880F991F46
:101550002A95E2F79A01282339238B81882F90E07E
:10156000A90102C0559547958A95E2F7CA0189837A
:1015700089810F900F900F900F900F90CF91DF9176
:101580000895DF93CF93CDB7DEB72C970FB6F894BD
:10159000DEBF0FBECDBF69877A878B879C87698541
:1015A0007A858B859C850E944F03DC01CB01BC01B1
:1015B000CD0124E036E542E25FE30E94C101DC0197
:1015C000CB01BC01CD010E944900DC01CB01BC0173
:1015D000CD010E944F03DC01CB01BC01CD012FEFF7
:1015E00037EE40EB5BE30E941F02DC01CB01BC0144
:1015F000CD010E944900DC01CB0189839A83AB8332
:10160000BC831D821E821F8218860CC000008D8143
:101610009E81AF81B8850196A11DB11D8D839E83EA
:10162000AF83B8872D813E814F81588589819A810A
:10163000AB81BC81281739074A075B0738F32C9622
:101640000FB6F894DEBF0FBECDBFCF91DF910895E6
:10165000DF93CF93CDB7DEB7AFE5B0E0EFE5F0E0D5
:10166000808180688C93CF91DF910895DF93CF9331
:10167000CDB7DEB7AFE5B0E0EFE5F0E080818F7782
:101680008C93CF91DF910895DF93CF93CDB7DEB7E1
:10169000EAE3F0E088E08083E7E3F0E08FEF808327
:1016A000E4E3F0E01082E1E3F0E087E08083EBE345
:1016B000F0E087E08083E8E3F0E01082E5E3F0E02B
:1016C0001082E2E3F0E01082CF91DF910895DF9382
:1016D000CF93CDB7DEB7A3E5B0E0E3E5F0E08081DE
:1016E000877F8C93A3E5B0E0E3E5F0E080818F7B1A
:1016F0008C93A3E5B0E0E3E5F0E080818B7F8C93F1
:10170000A3E5B0E0E3E5F0E0808182608C93A3E59F
:10171000B0E0E3E5F0E0808181608C93A9E5B0E082
:10172000E9E5F0E0808181608C93E2E5F0E083E818
:101730008083CF91DF910895DF93CF9300D0CDB711
:10174000DEB79A83898389819A81009731F08981F4
:101750009A819093A1018093A0010F900F90CF9157
:10176000DF9108951F920F920FB60F9211242F93BD
:101770003F934F935F936F937F938F939F93AF9319
:10178000BF93EF93FF93DF93CF93CDB7DEB78091F5
:10179000A0019091A101009729F0E091A001F091A2
:1017A000A1010995CF91DF91FF91EF91BF91AF9189
:1017B0009F918F917F916F915F914F913F912F9169
:1017C0000F900FBE0F901F901895DF93CF93CDB75A
:1017D000DEB70E94440B0E94BD0584E99CE00E9494
:1017E0009C0B0E94670B0E94280B81E460E00E9422
:1017F000160A882351F581E463E00E94160A8823C3
:1018000089F08091A8018F5F8093A80181E463E053
:1018100040E00E94AE0864EF71E080E090E00E943A
:10182000C10A13C08091A2018F5F8093A2018091B1
:10183000A201833011F41092A20110929C0164EF76
:1018400071E080E090E00E94C10A8091A2018823AB
:1018500019F40E94010D0DC08091A201813019F48C
:101860000E94E00D06C08091A201823011F40E9416
:101870008F0E81E461E00E94160A8823D1F48091E2
:10188000A201882319F40E948B0D0DC08091A20142
:10189000813019F40E944A0E06C08091A201823064
:1018A00011F40E94080F64EF71E080E090E00E9464
:1018B000C10A81E462E00E94160A8823D1F4809173
:1018C000A201882319F40E949F0D0DC08091A201EE
:1018D000813019F40E945E0E06C08091A201823010
:1018E00011F40E94290F64EF71E080E090E00E9403
:1018F000C10A9091A3018091A701981709F075CFB3
:101900009091A4018091A801981709F06ECF909151
:10191000A60180919D01981709F067CF81E463E0EB
:1019200041E00E94AE0861CFDF93CF93CDB7DEB721
:10193000E2E5F0E083E880838091AD019091AE0113
:1019400023E0883E920709F050C08091A5018F5F87
:101950008093A5018091A5018C3338F01092A501E8
:101960008091A4018F5F8093A4018091A4018C33A6
:1019700038F01092A4018091A3018F5F8093A3019E
:101980008091A3018C3040F01092A3018091A601B8
:1019900091E089278093A6018091AF01882309F106
:1019A0008091AB018F5F8093AB018091AB018C3351
:1019B00038F01092AB018091AA018F5F8093AA0149
:1019C0008091AA018C3338F01092AA018091A9016C
:1019D0008F5F8093A9018091A9018C3010F0109243
:1019E000A9011092AE011092AD018091AD019091CC
:1019F000AE0101969093AE018093AD01CF91DF913E
:101A00000895DF93CF93CDB7DEB780919C018823F3
:101A100019F481E00E94000684E680939C0180E036
:101A200060E00E94500680E690E00E94270680E079
:101A300061E00E9450068091A3018A3070F480E337
:101A40000E94D9058091A301882F90E0A0E0B0E02A
:101A5000BC01CD010E9450070AC08091A301882FCC
:101A600090E0A0E0B0E0BC01CD010E9450078CE600
:101A700090E00E9427068091A4018A3070F480E3F0
:101A80000E94D9058091A401882F90E0A0E0B0E0E9
:101A9000BC01CD010E9450070AC08091A401882F8B
:101AA00090E0A0E0B0E0BC01CD010E9450078CE6C0
:101AB00090E00E9427068091A5018A3070F480E3AF
:101AC0000E94D9058091A501882F90E0A0E0B0E0A8
:101AD000BC01CD010E9450070AC08091A501882F4A
:101AE00090E0A0E0B0E0BC01CD010E9450078EE67E
:101AF00090E00E9427068091A601882329F480E7C0
:101B000090E00E94270604C083E790E00E94270629
:101B1000CF91DF910895DF93CF93CDB7DEB780915A
:101B20009E018A3021F481E080939E0105C080915E
:101B30009E018D5F80939E01CF91DF910895DF9389
:101B4000CF93CDB7DEB780919E01813061F4809153
:101B5000A3018F5F8093A3018091A3018C3068F172
:101B60001092A3012AC080919E01843061F480917B
:101B7000A4018F5F8093A4018091A4018C33E8F0CD
:101B80001092A4011AC080919E01873061F4809167
:101B9000A5018F5F8093A5018091A5018C3368F02A
:101BA0001092A3010AC080919E018A3031F4809185
:101BB000A60191E089278093A601CF91DF91089536
:101BC000DF93CF93CDB7DEB780919C01882319F4C2
:101BD00081E00E94000684E680939C0180E060E042
:101BE0000E94500686E790E00E94270680E061E0B0
:101BF0000E9450068091A7018A3070F480E30E9411
:101C0000D9058091A701882F90E0A0E0B0E0BC0149
:101C1000CD010E9450070AC08091A701882F90E053
:101C2000A0E0B0E0BC01CD010E9450078CE690E03E
:101C30000E9427068091A8018A3070F480E30E94F8
:101C4000D9058091A801882F90E0A0E0B0E0BC0108
:101C5000CD010E9450070AC08091A801882F90E012
:101C6000A0E0B0E0BC01CD010E9450078EE690E0FC
:101C70000E94270680919D01882329F480E790E047
:101C80000E94270604C083E790E00E942706CF91B8
:101C9000DF910895DF93CF93CDB7DEB780919F0199
:101CA000873021F481E080939F0105C080919F01DE
:101CB0008D5F80939F01CF91DF910895DF93CF9344
:101CC000CDB7DEB780919F01813061F48091A7018B
:101CD0008F5F8093A7018091A7018C30E8F010926C
:101CE000A7011AC080919F01843061F48091A801FE
:101CF0008F5F8093A8018091A8018C3368F01092C7
:101D0000A8010AC080919F01873031F480919D0124
:101D100091E0892780939D01CF91DF910895DF9312
:101D2000CF93CDB7DEB780919C01882319F481E071
:101D30000E94000684E680939C0180E060E00E949F
:101D4000500683E890E00E94270680E061E00E9450
:101D500050068091A9018A3070F480E30E94D90571
:101D60008091A901882F90E0A0E0B0E0BC01CD01F6
:101D70000E9450070AC08091A901882F90E0A0E03E
:101D8000B0E0BC01CD010E9450078CE690E00E94BB
:101D900027068091AA018A3070F480E30E94D90559
:101DA0008091AA01882F90E0A0E0B0E0BC01CD01B5
:101DB0000E9450070AC08091AA01882F90E0A0E0FD
:101DC000B0E0BC01CD010E9450078CE690E00E947B
:101DD00027068091AB018A3070F480E30E94D90518
:101DE0008091AB01882F90E0A0E0B0E0BC01CD0174
:101DF0000E9450070AC08091AB01882F90E0A0E0BC
:101E0000B0E0BC01CD010E945007CF91DF91089551
:101E1000DF93CF93CDB7DEB78091AC01813019F459
:101E20001092AC0105C08091AC018F5F8093AC0132
:101E30008091AC01882319F41092AF0107C0809102
:101E4000AC01813019F481E08093AF01CF91DF9133
:101E50000895DF93CF93CDB7DEB781E00E940006EF
:101E60001092AF011092AC011092A9011092AA0138
:101E70001092AB01CF91DF910895A1E21A2EAA1B17
:101E8000BB1BFD010DC0AA1FBB1FEE1FFF1FA2172A
:101E9000B307E407F50720F0A21BB30BE40BF50B27
:101EA000661F771F881F991F1A9469F760957095B0
:101EB000809590959B01AC01BD01CF0108952F92B3
:101EC0003F924F925F926F927F928F929F92AF92CA
:101ED000BF92CF92DF92EF92FF920F931F93CF9317
:101EE000DF93CDB7DEB7CA1BDB0B0FB6F894DEBFAE
:101EF0000FBECDBF09942A88398848885F846E84D4
:101F00007D848C849B84AA84B984C884DF80EE801D
:101F1000FD800C811B81AA81B981CE0FD11D0FB626
:101F2000F894DEBF0FBECDBFED010895F894FFCF4A
:101F300054494D45204D4F44453A20003A00200079
:101F4000416D00506D00414C41524D204D4F444574
:101F50003A200053544F505741544348204D4F446A
:101F6000453A2000000000000000000000010202CD
:101F70000303030304040404040404040505050521
:101F800005050505050505050505050506060606FD
:101F900006060606060606060606060606060606E1
:101FA00006060606060606060606060607070707CD
:101FB00007070707070707070707070707070707B1
:101FC00007070707070707070707070707070707A1
:101FD0000707070707070707070707070707070791
:101FE000070707070707070707070707080808087D
:101FF0000808080808080808080808080808080861
:102000000808080808080808080808080808080850
:102010000808080808080808080808080808080840
:102020000808080808080808080808080808080830
:102030000808080808080808080808080808080820
:102040000808080808080808080808080808080810
:102050000808080808080808080808080808080800
:1020600008080808080808080808080864010101A9
:00000001FF
